{
  "contractName": "Social",
  "abi": [
    {
      "constant": false,
      "inputs": [
        {
          "internalType": "address",
          "name": "_user",
          "type": "address"
        }
      ],
      "name": "registerUser",
      "outputs": [],
      "payable": false,
      "stateMutability": "nonpayable",
      "type": "function"
    },
    {
      "constant": true,
      "inputs": [
        {
          "internalType": "address",
          "name": "_user",
          "type": "address"
        }
      ],
      "name": "validateUser",
      "outputs": [
        {
          "internalType": "bool",
          "name": "",
          "type": "bool"
        }
      ],
      "payable": false,
      "stateMutability": "view",
      "type": "function"
    }
  ],
  "bytecode": "0x608060405234801561001057600080fd5b5061021a806100206000396000f3fe608060405234801561001057600080fd5b50600436106100365760003560e01c80632199d5cd1461003b5780638459254e1461007f575b600080fd5b61007d6004803603602081101561005157600080fd5b81019080803573ffffffffffffffffffffffffffffffffffffffff1690602001909291905050506100db565b005b6100c16004803603602081101561009557600080fd5b81019080803573ffffffffffffffffffffffffffffffffffffffff169060200190929190505050610144565b604051808215151515815260200191505060405180910390f35b60008190806001815401808255809150509060018203906000526020600020016000909192909190916101000a81548173ffffffffffffffffffffffffffffffffffffffff021916908373ffffffffffffffffffffffffffffffffffffffff1602179055505050565b600080600090505b60008054905081116101da578273ffffffffffffffffffffffffffffffffffffffff166000828154811061017c57fe5b9060005260206000200160009054906101000a900473ffffffffffffffffffffffffffffffffffffffff1673ffffffffffffffffffffffffffffffffffffffff1614156101cd5760019150506101e0565b808060010191505061014c565b50600090505b91905056fea265627a7a723158201e57c41676510d9bb76824e99dc274b55bb3cd3e09364e2667fd658e1085963e64736f6c63430005100032",
  "source": "pragma solidity >=0.5.0 <0.6.0;\r\n\r\ncontract Social{\r\n\r\n    address[] private user;\r\n\r\n    function registerUser(address _user) public{\r\n        user.push(_user);\r\n    }\r\n\r\n    function validateUser(address _user) view public returns (bool){\r\n        for(uint i=0; i <= user.length; i++){\r\n            if(user[i] == _user){\r\n                return true;\r\n            }\r\n        }return false;\r\n    }\r\n\r\n\r\n}\r\n",
  "sourcePath": "E:\\truffletest\\contracts\\Social.sol",
  "compiler": {
    "name": "solc",
    "version": "0.5.16+commit.9c3226ce.Emscripten.clang"
  },
  "schemaVersion": "3.2.0",
  "updatedAt": "2020-07-27T14:06:41.619Z",
  "networkType": "ethereum",
  "devdoc": {
    "methods": {}
  },
  "userdoc": {
    "methods": {}
  }
}